:020000040800F2
:100000001004002061180008991500089B150008CD
:100010009D1500089F150008A115000800000000AC
:10002000000000000000000000000000A315000810
:10003000A515000800000000A7150008A915000874
:10004000891800088D1800089118000895180008F4
:10005000991800089D180008B5150008C915000872
:10006000A1180008A5180008A9180008AD18000874
:10007000B1180008B5180008B9180008BD18000824
:10008000C1180008C5180008C9180008CD180008D4
:10009000D1180008D5180008D9180008DD18000884
:1000A000E1180008E5180008E9180008ED18000834
:1000B0006B16000875160008F1180008F5180008FE
:1000C000F9180008FD1800080119000805190008B2
:1000D000091900080D190008111900081519000860
:1000E000191900081D190008211900082519000810
:1000F000291900082D1900083119000835190008C0
:10010000391900083D19000841190008451900086F
:10011000491900084D19000851190008551900081F
:10012000591900085D1900086119000865190008CF
:10013000691900086D19000871190008751900087F
:10014000791900087D19000881190008851900082F
:10015000891900088D1900089119000895190008DF
:10016000991900089D190008A1190008A51900088F
:10017000A9190008AD190008B11900080000000015
:10018000B5190008B919000870B582B00400002C38
:1001900001D10120F2E12078C0076FD5DFF8D80542
:1001A000006810F00C0004280BD0DFF8CC050068C4
:1001B00010F00C0008280ED1DFF8C00500684002DE
:1001C00009D5DFF8BC050068800357D560680028B2
:1001D00054D10120D2E16068B0F5803F08D1DFF84A
:1001E000A005006850F48030DFF89415086024E022
:1001F0006068B0F5A02F10D1DFF88405006850F4D6
:100200008020DFF87C150860DFF87405006850F482
:100210008030DFF86C1508600FE0DFF864050068D7
:1002200030F48030DFF858150860DFF854050068B6
:1002300030F48020DFF848150860606800280ED090
:1002400000F0FDFA0500DFF838050068800315D4DA
:1002500000F0F5FA401B6528F5D303208EE100F08D
:10026000EEFA0500DFF818050068800306D500F0F7
:10027000E6FA401B6528F5D303207FE1207880074C
:100280005CD5DFF8F404006810F00C0F0BD0DFF839
:10029000E804006810F00C0008281AD1DFF8DC042C
:1002A0000068400215D4DFF8D8040068800704D540
:1002B000E068012801D0012060E1DFF8C404006893
:1002C00030F0F800216950EAC100DFF8B41408608A
:1002D00034E0E06800281ED00120DFF8A814086090
:1002E00000F0ADFA0500DFF898040068800706D436
:1002F00000F0A5FA401B0328F5D303203EE1DFF808
:100300008004006830F0F800216950EAC100DFF88D
:100310007014086012E00020DFF86814086000F034
:100320008EFA0500DFF858040068800706D500F053
:1003300086FA401B0328F5D303201FE1207800072D
:1003400028D56069002812D00120DFF83C1408602D
:1003500000F075FA0500DFF834040068800719D44E
:1003600000F06DFA401B0328F5D3032006E10020BE
:10037000DFF81414086000F062FA0500DFF80C04DE
:100380000068800706D500F05AFA401B0328F5D311
:100390000320F3E02078400740F195800026DFF845
:1003A000F0030068C00012D400200090DFF8E003E2
:1003B000006850F08050DFF8D8130860DFF8D003F1
:1003C000006810F080500090009801200600DFF8CF
:1003D000C4030068C00516D4DFF8B803006850F401
:1003E0008070DFF8B013086000F029FA0500DFF82C
:1003F000A4030068C00506D400F021FA401B0328BE
:10040000F5D30320BAE0A068012808D1DFF88803FB
:10041000006850F00100DFF88013086023E0A06856
:10042000052810D1DFF87003006850F00400DFF8F1
:1004300068130860DFF86003006850F00100DFF81F
:10044000581308600FE0DFF85003006840084000D0
:10045000DFF844130860DFF84003006830F0040060
:10046000DFF834130860A068002810D000F0E7F926
:100470000500DFF824030068800719D400F0DFF9D5
:10048000401B41F289318842F3D3032076E000F02B
:10049000D6F90500DFF800030068800708D500F0F2
:1004A000CEF9401B41F289318842F3D3032065E045
:1004B000F6B2012E07D1DFF8D802006830F0805084
:1004C000DFF8CC120860A069002856D0DFF8A80237
:1004D000006810F00C0008284DD0A069022837D120
:1004E0000020DFF8B812086000F0A9F90500DFF875
:1004F00090020068800106D500F0A1F9401B032896
:10050000F5D303203AE0E069216A0843616A50EAC2
:100510008110A16A891EC903090C09040843E16A14
:1005200050EA0160DFF8541208600120DFF86C1215
:10053000086000F084F90500DFF8440200688001DB
:100540001BD400F07CF9401B0328F5D3032015E0F1
:100550000020DFF84812086000F071F90500DFF8AC
:1005600020020068800108D500F069F9401B0328CB
:10057000F5D3032002E0012000E0002076BD70B535
:1005800004000D00002C01D10120AAE0DFF81002C8
:10059000006810F00F00A8420BD2DFF804020570CB
:1005A000DFF8FC01006810F00F00A84201D0012024
:1005B00097E0207880071FD52078400707D5DFF81F
:1005C000B801006850F4E050DFF8AC110860207802
:1005D000000707D5DFF8A001006850F46040DFF89D
:1005E00098110860DFF89001006830F0F000A16811
:1005F0000843DFF8841108602078C0073BD56068A5
:10060000012806D1DFF878010068800315D40120A5
:1006100067E06068022802D06068032806D1DFF82E
:1006200060010068800108D401205AE0DFF8500121
:100630000068800701D4012053E0DFF83C01006826
:100640008008800061680843DFF82C11086000F022
:10065000F6F806004848006810F00C006168B0EB3E
:10066000810F08D000F0EBF8801B41F289318842FD
:10067000F0D3032035E04A48006810F00F008542AF
:1006800009D2474805704648006810F00F00A8429C
:1006900001D0012025E02078400707D536480068C2
:1006A00030F4E050E16808433349086020780007DF
:1006B00008D53148006830F46040216950EAC10033
:1006C0002D49086000F00EF836492B4A1268C2F333
:1006D0000312515CC84034490860002000F087F8DC
:1006E000002070BDF0B50024002600270025224818
:1006F000006810F00C00002804D0042805D0082859
:1007000006D032E02948050031E0294805002EE0F6
:100710001A48006810F03F000400184800684002C2
:100720000CD516480068C0F388102149A1FB0001D0
:100730002200002300F090F806000BE00F4800684C
:10074000C0F388101949A1FB00012200002300F02A
:1007500083F8060009480068C0F30140401C4000CF
:100760000700B6FBF7F0050001E01048050028007F
:10077000F0BD0D4800687047083802400438024058
:100780000038024000004742800E47427438024061
:10079000403802400070004070380240600047421C
:1007A000003C024050180008040000200024F4001F
:1007B00040787D0180B52348006850F400702149DD
:1007C00008602048006850F480601E4908601D4899
:1007D000006850F480701B490860032000F01CF989
:1007E000002000F004F800F065F9002002BD10B50B
:1007F00004004FF47A7014490978B0FBF1F0134902
:100800000968B1FBF0F000F027F9002801D00120C1
:100810000CE0102C09D2002221005FF0FF3000F024
:1008200001F90B480460002000E0012010BD0948D8
:10083000006805490978401806490860704705486E
:1008400000687047003C02400800002004000020BF
:1008500000000020880400201B4213D1094236D139
:100860002AB18446B0FBF2F002FB10C2704700F0E0
:10087000CDB9FCD30022002370470B0002000021F9
:1008800000207047904271EB030CF6D370B5B1FABB
:1008900081F4B3FA83F52C1BA340C4F1200532FA8E
:1008A00005F63343A2405FF00046E64002E05B08F5
:1008B0005FEA3202841A71EB030524BF2046294601
:1008C0007641F4D302000B003000002170BD012AF4
:1008D000CFD970B5140C20D0B1FA81F4B2FA82F5F8
:1008E000C4F120046419B4F12006D6D3B2405FF0FD
:1008F0000044F440002502E052085FEA3303C61AC0
:1009000071EB020E24BF3046714664416D41F3D352
:1009100002000B002000290070BD0C46B1FBF2F173
:1009200002FB11452D0445EA1045B5FBF2F402FB2C
:10093000145580B240EA0545B5FBF2F002FB1052B7
:1009400040EA044070BD000010F007024E4B1B68E7
:1009500019004FF6FF0319404C4B53EA0223194389
:10096000494B1960704748480068C0F3022070473F
:10097000012110F01F029140454A40B2430942F85C
:100980002310704710B440B2002808D50A01414B2B
:1009900040B210F00F04E31803F8042C03E00A013E
:1009A0003D4B40B2C25410BC704770B4030013F00A
:1009B0000704D4F10706052E01D3042001E0D4F189
:1009C0000700261D072E01D2002500E0E51E0126A6
:1009D00016FA00F0401E0840A8400121A940491E17
:1009E0001140084370BC704710B50400601EB0F1A0
:1009F000807F01D301200EE0601E284908600F218E
:100A00005FF0FF30FFF7BEFF002025490860072098
:100A100024490860002010BD10B504002000FFF735
:100A200093FF10BDF8B504000D0016000027FFF776
:100A30009AFF0700320029003800FFF7B6FF0100D7
:100A4000200040B2FFF79EFFF1BD10B5040020006A
:100A500040B2FFF78DFF10BD10B504002000FFF776
:100A6000C3FF10BD042806D10E49096851F00401E6
:100A70000C4A116005E00B49096831F00401094A8C
:100A800011607047000000000CED00E00000FA0566
:100A900000E100E018ED00E000E400E014E000E018
:100AA00018E000E010E000E080B500F001F801BDC2
:100AB0007047000080B5002000904F48006850F457
:100AC00080404D4908604C48006810F48040009018
:100AD0000098002000904948006850F08050474935
:100AE00008604648006810F080500090009803208D
:100AF000FFF792FF002200217FF00B00FFF792FF2B
:100B0000002200217FF00A00FFF78CFF0022002165
:100B10007FF00900FFF786FF002200217FF004002C
:100B2000FFF780FF002200217FF00300FFF77AFF2C
:100B3000002200217FF00100FFF774FF0022002156
:100B40005FF0FF30FFF76EFF01BD10B586B0040007
:100B50002068B0F1804F24D1002000902748006821
:100B600050F00100254908602448006810F0010099
:100B7000009000980F200190022002900220039024
:100B8000002004900120059001A91D4800F040F8C4
:100B9000002200211C20FFF745FF1C20FFF755FF16
:100BA00027E020681749884223D10020009013488D
:100BB000006850F00200114908601048006810F009
:100BC0000200009000980320019002200290002073
:100BD0000390002004900220059001A90A4800F02B
:100BE00017F8002200211D20FFF71CFF1D20FFF732
:100BF0002CFF06B010BD00004438024040380240CF
:100C00000000024000040040000402407047000061
:100C1000F8B400230024002500263200102A80F0BA
:100C2000E7800126964033000E681E4034009C4247
:100C300040F0DC804E68022E02D04E68122E16D193
:100C4000D60810EB8606366A35000F2612F0070725
:100C5000FFB2BF00BE40B5430E6912F00707FFB2F6
:100C6000BF00BE403543D60810EB860635620668E5
:100C7000350003261700FFB27F00BE40B5430E7952
:100C800016F003061700FFB27F00BE403543056033
:100C90004E68012E08D04E68022E05D04E68112EE7
:100CA00002D04E68122E19D186683500032617002F
:100CB000FFB27F00BE40B543CE681700FFB27F0091
:100CC000BE40354385604668350001269640B543F1
:100CD0004E68C6F30016964035434560C668350039
:100CE00003261700FFB27F00BE40B5438E68170091
:100CF000FFB27F00BE403543C5604E68F60075D533
:100D0000002600964A4E366856F48046484F3E60AC
:100D1000474E366816F480460096009E454E97086A
:100D200056F8276035000F2612F00307FFB2BF0008
:100D3000BE40B543404EB04201D1002623E03F4EB5
:100D4000B04201D101261EE03D4EB04201D1022643
:100D500019E03C4EB04201D1032614E03A4EB042B5
:100D600001D104260FE0394EB04201D105260AE038
:100D7000374EB04201D1062605E0364EB04201D1D1
:100D8000072600E00826F6B212F00307FFB2BF0004
:100D9000BE403543274E970846F827502E4E3668FA
:100DA0003500A5434E68F60300D525432A4E35602D
:100DB0002A4E36683500A5434E68B60300D5254354
:100DC000264E3560264E36683500A5434E68F6023D
:100DD00000D52543224E3560224E36683500A543A6
:100DE0004E68B60200D525431E4E3560521C15E7ED
:100DF000F1BC7047D2B2002A02D089B2816102E010
:100E000089B20B0483617047426989B24A404261EA
:100E1000704710B5040014480068A4B2204206D000
:100E2000A4B211480460200080B200F01FF810BD89
:100E300044380240083801400000024000040240EB
:100E400000080240000C0240001002400014024062
:100E500000180240001C0240003C0140043C0140DC
:100E6000083C01400C3C0140143C0140704700002C
:100E700080B5FFF79FFC00F02FF800F02EF900F08E
:100E8000E1F800F07FF8C948006840F4885050F05D
:100E90001100C6490860C648006850F02E00C449D9
:100EA00008605FF08040006850F001005FF0804112
:100EB0000860C048006850F48850BE490860BE48C9
:100EC000006850F01800BC490860BC48006850F049
:100ED0000100BA490860FEE700B593B00020009019
:100EE000B748006850F08050B5490860B4480068C1
:100EF00010F080500090009800200090B1480068E9
:100F000050F48040AF490860AE48006810F480405B
:100F100000900098022006900120099010200A906D
:100F200000200C9006A8FFF72FF9002803D0972186
:100F3000A54800F055F90F200190002002900020F4
:100F400003900020049000200590002101A8FFF7E5
:100F500016FB002803D0A5219B4800F041F9FFF7BC
:100F600008FC4FF47A71B0FBF1F0FFF775FD042037
:100F7000FFF778FD002200215FF0FF30FFF752FD00
:100F800013B000BD00B587B05FF080408F490860A6
:100F900000208E49486000208C4988604FF6FF7021
:100FA0008A49C860002089490861884800F01AF918
:100FB000002803D0C221844800F012F900200490D8
:100FC0000020059004A9814800F0B8FA002803D059
:100FD000C9217D4800F004F9002000900120019013
:100FE000002002900020039000226946774800F01C
:100FF00015F9002803D0D221734800F0F1F804223B
:101000006946724800F00AF9002803D0D7216E48DB
:1010100000F0E6F8082269466C4800F0FFF8002866
:1010200003D0DC21684800F0DBF80C2269466748F1
:1010300000F0F4F8002803D0E121634800F0D0F874
:1010400007B000BD00B587B05C486149086000206A
:101050005F49486000205E4988604FF6FF705C4938
:10106000C86000205A490861594800F0BBF80028C0
:1010700003D0F421544800F0B3F800200090002081
:1010800001906946524800F059FA002803D0FB212C
:101090004D4800F0A5F800200290012003900020A8
:1010A000049000200590082202A9494800F0B6F8F3
:1010B000002804D04FF48271434800F091F80C22CC
:1010C00002A9434800F0AAF8002804D040F2091110
:1010D0003D4800F085F807B000BD00B587B000209E
:1010E00000903C48006850F004003A4908603948D4
:1010F000006810F00400009000980020009035482F
:10110000006850F00100334908603248006810F070
:10111000010000900098002000902E48006850F0D8
:1011200002002C4908602B48006810F00200009073
:101130000098002000902748006850F008002549DA
:1011400008602448006810F0080000900098002211
:101150004FF470412048FFF74DFE032001901F48D7
:1011600002900220039001A91B48FFF751FD4FF4A4
:101170007040019001200290002003900020049014
:1011800001A91548FFF744FD002200210620FFF7C2
:1011900049FC0620FFF759FC002200210720FFF739
:1011A00041FC0720FFF751FC07B000BD20000040C4
:1011B0000C000040200400400C04004000040040EB
:1011C000403802400070004038170008100400202A
:1011D0004C04002030380240000C02400000111086
:1011E000FEE7000010B50400002C01D1012014E03E
:1011F00094F83900002805D1002084F83800200038
:10120000FFF7A3FC022084F83900211D206800F0BC
:1012100070F8012084F83900002010BD70B504007A
:101220000D00160094F83800012801D102205FE07B
:10123000012084F83800022084F83900002E12D1F1
:10124000EB686A682968206800F0C6F82068806941
:1012500030F00C002168886120688069A968084323
:10126000216888613DE0042E13D1EB686A68296823
:10127000206800F007F92068806930F44060216838
:10128000886120688069A96850EA01202168886126
:1012900027E0082E12D1EB686A682968206800F000
:1012A00010F92068C06930F00C002168C86120681E
:1012B000C069A96808432168C86112E0EB686A68E0
:1012C0002968206800F01BF92068C06930F440608C
:1012D0002168C8612068C069A96850EA01202168B6
:1012E000C861012084F83900002084F8380000200B
:1012F00070BD002203681A00DFF85C31984212D0FA
:10130000B0F1804F0FD0DFF8543198420BD0DFF8A6
:101310005031984207D0DFF84C31984203D0DFF8C3
:101320004831984201D1012300E00023DBB2002BB9
:1013300003D032F070024B681A43DFF81C31984238
:101340002AD0B0F1804F27D0DFF81031984223D057
:10135000DFF80C3198421FD0DFF8083198421BD0DB
:10136000DFF80431984217D0DFF80031984213D0EB
:10137000DFF8FC3098420FD0DFF8F83098420BD0FD
:10138000DFF8F430984207D0DFF8F030984203D00D
:10139000DFF8EC30984201D1012300E00023DBB2FA
:1013A000002B03D032F44072CB681A4302608B6882
:1013B000C3620B688362284B984202D02A4B984242
:1013C00001D1012300E00023DBB2002B01D00B6927
:1013D000036301234361704770B400240025066A4B
:1013E00076087600066286693400066A35001A4E71
:1013F000B04214D0B0F1804F11D0184EB0420ED090
:10140000174EB0420BD0174EB04208D0164EB04225
:1014100005D0164EB04202D0174EB04201D101267F
:1014200000E00026F6B2002E03D0A408A400144366
:1014300003E0A408A40054F0010434F0F0041E01F9
:1014400016F0F006344335F00A0511F00A0635436C
:101450008461056270BC70470000014000040040D8
:1014600000080040000C0040000401400040014022
:10147000004401400048014000180040001C0040AA
:101480000020004070B400240025066A36F01006E3
:10149000066286693400066A350034F4407454EA02
:1014A000022434F470441E0316F47046344335F0BD
:1014B000A0050E0116F0A00635438461056270BCDC
:1014C000704770B400240025066A36F48076066200
:1014D000C6693400066A3500A408A400144334F039
:1014E000F0041E0116F0F006344335F420650E02B8
:1014F00016F420663543C461056270BC704770B451
:1015000000240025066A36F480560662C669340057
:10151000066A350034F4407454EA022434F470440A
:101520001E0316F47046344335F420450E0316F4BA
:1015300020463543C461056270BC7047020092F8D2
:101540003800012801D1022024E0012082F838006F
:10155000022082F839001068406830F0700013688B
:101560005860106840680B6818431368586010682A
:10157000806830F0800013689860106880684B685D
:10158000184313689860012082F83900002082F81F
:1015900038000020704700007047FEE7FEE7FEE7D6
:1015A000FEE770477047704780B5FFF740F9FFF7D7
:1015B0007BFA01BD80B50120FFF72BFC4FF4804181
:1015C0002F48FFF721FC01BD80B50220FFF721FC69
:1015D0004FF400412A48FFF717FC01BD10B5040085
:1015E0002068006980070CD52068C068800708D58E
:1015F0007FF00200216808614FF480512048FFF716
:1016000003FC2068006940070CD52068C0684007CB
:1016100008D57FF00400216808614FF40051184894
:10162000FFF7F2FB2068006900070CD52068C0684E
:10163000000708D57FF00800216808614FF4804159
:101640000F48FFF7E1FB20680069C0060CD5206851
:10165000C068C00608D57FF01000216808614FF40B
:1016600000410748FFF7D0FB10BD80B50548FFF7E4
:10167000B5FF01BD80B50448FFF7B0FF01BD000014
:10168000000C0240100400204C04002012480068A6
:1016900050F47000104908601048006850F00100D4
:1016A0000E49086000200E4908600C4800680D498A
:1016B00008400A4908600C480C490860074800685F
:1016C00030F48020054908600020094908605FF077
:1016D000006008490860704788ED00E0003802406B
:1016E00008380240FFFFF6FE1030002404380240A4
:1016F0000C38024008ED00E019E050F8041BCB075D
:1017000044BFA9F101035918121F0023042A41F80C
:10171000043BF9D25FEA827C0B4604D54FF0000C03
:10172000A1F800C09B1CD10744BF0021197050F8DC
:10173000042B002AE1D17047433A5C5573657273FC
:101740005C72757330385C446F63756D656E74736D
:101750005C65787469746573745C657874697465C4
:1017600073745C5372635C6D61696E2E630000007C
:1017700010B450F8041B79B102684368121808309D
:10178000DC0744BFA9F10104E31852F8044B43F805
:10179000044B091FF9D1ECE710BC704710B507499D
:1017A00079441831064C7C44163404E00A68081D5C
:1017B000511888470146A142F8D110BD2C00000005
:1017C0004C0000004EF68851CEF20001086840F44B
:1017D00070000860BFF34F8FBFF36F8F4FF0007042
:1017E000E1EE100A7047000011FFFFFF7C000000CF
:1017F000100400200000000079FFFFFF0C00000033
:101800007C000000000000200000000000F00BF849
:10181000002801D0FFF7C2FF0020C046C046FFF7F6
:1018200027FB00F002F80120704700F001B800002B
:101830000746384600F002F8FBE7000080B5C046D6
:10184000C046024A11001820ABBEFBE7260002008A
:101850000000000000000000010203040607080960
:1018600001488047014800478D160008711800089C
:10187000C046C046FFF7A6FFFFF7C8FF10000000F4
:101880000024F40001000000FFF7FEBFFFF7FEBFD9
:10189000FFF7FEBFFFF7FEBFFFF7FEBFFFF7FEBF7C
:1018A000FFF7FEBFFFF7FEBFFFF7FEBFFFF7FEBF6C
:1018B000FFF7FEBFFFF7FEBFFFF7FEBFFFF7FEBF5C
:1018C000FFF7FEBFFFF7FEBFFFF7FEBFFFF7FEBF4C
:1018D000FFF7FEBFFFF7FEBFFFF7FEBFFFF7FEBF3C
:1018E000FFF7FEBFFFF7FEBFFFF7FEBFFFF7FEBF2C
:1018F000FFF7FEBFFFF7FEBFFFF7FEBFFFF7FEBF1C
:10190000FFF7FEBFFFF7FEBFFFF7FEBFFFF7FEBF0B
:10191000FFF7FEBFFFF7FEBFFFF7FEBFFFF7FEBFFB
:10192000FFF7FEBFFFF7FEBFFFF7FEBFFFF7FEBFEB
:10193000FFF7FEBFFFF7FEBFFFF7FEBFFFF7FEBFDB
:10194000FFF7FEBFFFF7FEBFFFF7FEBFFFF7FEBFCB
:10195000FFF7FEBFFFF7FEBFFFF7FEBFFFF7FEBFBB
:10196000FFF7FEBFFFF7FEBFFFF7FEBFFFF7FEBFAB
:10197000FFF7FEBFFFF7FEBFFFF7FEBFFFF7FEBF9B
:10198000FFF7FEBFFFF7FEBFFFF7FEBFFFF7FEBF8B
:10199000FFF7FEBFFFF7FEBFFFF7FEBFFFF7FEBF7B
:1019A000FFF7FEBFFFF7FEBFFFF7FEBFFFF7FEBF6B
:0C19B000FFF7FEBFFFF7FEBFFFF7FEBF12
:040000050800187166
:00000001FF
